{
  "_format": "hh-sol-artifact-1",
  "contractName": "VideoNFT",
  "sourceName": "contracts/VideoNFT.sol",
  "abi": [
    {
      "inputs": [],
      "stateMutability": "nonpayable",
      "type": "constructor"
    },
    {
      "anonymous": false,
      "inputs": [
        {
          "indexed": true,
          "internalType": "address",
          "name": "owner",
          "type": "address"
        },
        {
          "indexed": true,
          "internalType": "address",
          "name": "approved",
          "type": "address"
        },
        {
          "indexed": true,
          "internalType": "uint256",
          "name": "tokenId",
          "type": "uint256"
        }
      ],
      "name": "Approval",
      "type": "event"
    },
    {
      "anonymous": false,
      "inputs": [
        {
          "indexed": true,
          "internalType": "address",
          "name": "owner",
          "type": "address"
        },
        {
          "indexed": true,
          "internalType": "address",
          "name": "operator",
          "type": "address"
        },
        {
          "indexed": false,
          "internalType": "bool",
          "name": "approved",
          "type": "bool"
        }
      ],
      "name": "ApprovalForAll",
      "type": "event"
    },
    {
      "anonymous": false,
      "inputs": [
        {
          "indexed": false,
          "internalType": "uint256",
          "name": "_fromTokenId",
          "type": "uint256"
        },
        {
          "indexed": false,
          "internalType": "uint256",
          "name": "_toTokenId",
          "type": "uint256"
        }
      ],
      "name": "BatchMetadataUpdate",
      "type": "event"
    },
    {
      "anonymous": false,
      "inputs": [
        {
          "indexed": false,
          "internalType": "uint8",
          "name": "version",
          "type": "uint8"
        }
      ],
      "name": "Initialized",
      "type": "event"
    },
    {
      "anonymous": false,
      "inputs": [
        {
          "indexed": false,
          "internalType": "uint256",
          "name": "_tokenId",
          "type": "uint256"
        }
      ],
      "name": "MetadataUpdate",
      "type": "event"
    },
    {
      "anonymous": false,
      "inputs": [
        {
          "indexed": true,
          "internalType": "address",
          "name": "previousOwner",
          "type": "address"
        },
        {
          "indexed": true,
          "internalType": "address",
          "name": "newOwner",
          "type": "address"
        }
      ],
      "name": "OwnershipTransferred",
      "type": "event"
    },
    {
      "anonymous": false,
      "inputs": [
        {
          "indexed": false,
          "internalType": "address",
          "name": "account",
          "type": "address"
        }
      ],
      "name": "Paused",
      "type": "event"
    },
    {
      "anonymous": false,
      "inputs": [
        {
          "indexed": true,
          "internalType": "address",
          "name": "from",
          "type": "address"
        },
        {
          "indexed": true,
          "internalType": "address",
          "name": "to",
          "type": "address"
        },
        {
          "indexed": true,
          "internalType": "uint256",
          "name": "tokenId",
          "type": "uint256"
        }
      ],
      "name": "Transfer",
      "type": "event"
    },
    {
      "anonymous": false,
      "inputs": [
        {
          "indexed": false,
          "internalType": "address",
          "name": "account",
          "type": "address"
        }
      ],
      "name": "Unpaused",
      "type": "event"
    },
    {
      "inputs": [
        {
          "internalType": "address",
          "name": "to",
          "type": "address"
        },
        {
          "internalType": "uint256",
          "name": "tokenId",
          "type": "uint256"
        }
      ],
      "name": "approve",
      "outputs": [],
      "stateMutability": "nonpayable",
      "type": "function"
    },
    {
      "inputs": [
        {
          "internalType": "address",
          "name": "owner",
          "type": "address"
        }
      ],
      "name": "balanceOf",
      "outputs": [
        {
          "internalType": "uint256",
          "name": "",
          "type": "uint256"
        }
      ],
      "stateMutability": "view",
      "type": "function"
    },
    {
      "inputs": [
        {
          "internalType": "uint256",
          "name": "tokenId",
          "type": "uint256"
        }
      ],
      "name": "burn",
      "outputs": [],
      "stateMutability": "nonpayable",
      "type": "function"
    },
    {
      "inputs": [
        {
          "internalType": "uint256",
          "name": "tokenId",
          "type": "uint256"
        }
      ],
      "name": "getApproved",
      "outputs": [
        {
          "internalType": "address",
          "name": "",
          "type": "address"
        }
      ],
      "stateMutability": "view",
      "type": "function"
    },
    {
      "inputs": [],
      "name": "initialize",
      "outputs": [],
      "stateMutability": "nonpayable",
      "type": "function"
    },
    {
      "inputs": [
        {
          "internalType": "address",
          "name": "owner",
          "type": "address"
        },
        {
          "internalType": "address",
          "name": "operator",
          "type": "address"
        }
      ],
      "name": "isApprovedForAll",
      "outputs": [
        {
          "internalType": "bool",
          "name": "",
          "type": "bool"
        }
      ],
      "stateMutability": "view",
      "type": "function"
    },
    {
      "inputs": [
        {
          "internalType": "address",
          "name": "",
          "type": "address"
        }
      ],
      "name": "isMinter",
      "outputs": [
        {
          "internalType": "bool",
          "name": "",
          "type": "bool"
        }
      ],
      "stateMutability": "view",
      "type": "function"
    },
    {
      "inputs": [
        {
          "internalType": "address",
          "name": "",
          "type": "address"
        }
      ],
      "name": "isPauser",
      "outputs": [
        {
          "internalType": "bool",
          "name": "",
          "type": "bool"
        }
      ],
      "stateMutability": "view",
      "type": "function"
    },
    {
      "inputs": [
        {
          "internalType": "address",
          "name": "to",
          "type": "address"
        },
        {
          "internalType": "uint256",
          "name": "tokenId",
          "type": "uint256"
        },
        {
          "internalType": "string",
          "name": "tokenUri",
          "type": "string"
        }
      ],
      "name": "mint",
      "outputs": [],
      "stateMutability": "nonpayable",
      "type": "function"
    },
    {
      "inputs": [
        {
          "internalType": "address[]",
          "name": "dests",
          "type": "address[]"
        },
        {
          "internalType": "uint256[]",
          "name": "tokenIds",
          "type": "uint256[]"
        },
        {
          "internalType": "string[]",
          "name": "tokenURIs",
          "type": "string[]"
        }
      ],
      "name": "multimint",
      "outputs": [
        {
          "internalType": "uint256",
          "name": "",
          "type": "uint256"
        }
      ],
      "stateMutability": "nonpayable",
      "type": "function"
    },
    {
      "inputs": [],
      "name": "name",
      "outputs": [
        {
          "internalType": "string",
          "name": "",
          "type": "string"
        }
      ],
      "stateMutability": "view",
      "type": "function"
    },
    {
      "inputs": [],
      "name": "owner",
      "outputs": [
        {
          "internalType": "address",
          "name": "",
          "type": "address"
        }
      ],
      "stateMutability": "view",
      "type": "function"
    },
    {
      "inputs": [
        {
          "internalType": "uint256",
          "name": "tokenId",
          "type": "uint256"
        }
      ],
      "name": "ownerOf",
      "outputs": [
        {
          "internalType": "address",
          "name": "",
          "type": "address"
        }
      ],
      "stateMutability": "view",
      "type": "function"
    },
    {
      "inputs": [],
      "name": "pause",
      "outputs": [],
      "stateMutability": "nonpayable",
      "type": "function"
    },
    {
      "inputs": [],
      "name": "paused",
      "outputs": [
        {
          "internalType": "bool",
          "name": "",
          "type": "bool"
        }
      ],
      "stateMutability": "view",
      "type": "function"
    },
    {
      "inputs": [],
      "name": "renounceOwnership",
      "outputs": [],
      "stateMutability": "nonpayable",
      "type": "function"
    },
    {
      "inputs": [
        {
          "internalType": "address",
          "name": "from",
          "type": "address"
        },
        {
          "internalType": "address",
          "name": "to",
          "type": "address"
        },
        {
          "internalType": "uint256",
          "name": "tokenId",
          "type": "uint256"
        }
      ],
      "name": "safeTransferFrom",
      "outputs": [],
      "stateMutability": "nonpayable",
      "type": "function"
    },
    {
      "inputs": [
        {
          "internalType": "address",
          "name": "from",
          "type": "address"
        },
        {
          "internalType": "address",
          "name": "to",
          "type": "address"
        },
        {
          "internalType": "uint256",
          "name": "tokenId",
          "type": "uint256"
        },
        {
          "internalType": "bytes",
          "name": "data",
          "type": "bytes"
        }
      ],
      "name": "safeTransferFrom",
      "outputs": [],
      "stateMutability": "nonpayable",
      "type": "function"
    },
    {
      "inputs": [
        {
          "internalType": "address",
          "name": "operator",
          "type": "address"
        },
        {
          "internalType": "bool",
          "name": "approved",
          "type": "bool"
        }
      ],
      "name": "setApprovalForAll",
      "outputs": [],
      "stateMutability": "nonpayable",
      "type": "function"
    },
    {
      "inputs": [
        {
          "internalType": "address",
          "name": "_address",
          "type": "address"
        },
        {
          "internalType": "bool",
          "name": "_status",
          "type": "bool"
        }
      ],
      "name": "setMinter",
      "outputs": [],
      "stateMutability": "nonpayable",
      "type": "function"
    },
    {
      "inputs": [
        {
          "internalType": "address",
          "name": "_address",
          "type": "address"
        },
        {
          "internalType": "bool",
          "name": "_status",
          "type": "bool"
        }
      ],
      "name": "setPauser",
      "outputs": [],
      "stateMutability": "nonpayable",
      "type": "function"
    },
    {
      "inputs": [
        {
          "internalType": "bytes4",
          "name": "interfaceId",
          "type": "bytes4"
        }
      ],
      "name": "supportsInterface",
      "outputs": [
        {
          "internalType": "bool",
          "name": "",
          "type": "bool"
        }
      ],
      "stateMutability": "view",
      "type": "function"
    },
    {
      "inputs": [],
      "name": "symbol",
      "outputs": [
        {
          "internalType": "string",
          "name": "",
          "type": "string"
        }
      ],
      "stateMutability": "view",
      "type": "function"
    },
    {
      "inputs": [
        {
          "internalType": "uint256",
          "name": "tokenId",
          "type": "uint256"
        }
      ],
      "name": "tokenURI",
      "outputs": [
        {
          "internalType": "string",
          "name": "",
          "type": "string"
        }
      ],
      "stateMutability": "view",
      "type": "function"
    },
    {
      "inputs": [],
      "name": "totalSupply",
      "outputs": [
        {
          "internalType": "uint256",
          "name": "",
          "type": "uint256"
        }
      ],
      "stateMutability": "view",
      "type": "function"
    },
    {
      "inputs": [
        {
          "internalType": "address",
          "name": "from",
          "type": "address"
        },
        {
          "internalType": "address",
          "name": "to",
          "type": "address"
        },
        {
          "internalType": "uint256",
          "name": "tokenId",
          "type": "uint256"
        }
      ],
      "name": "transferFrom",
      "outputs": [],
      "stateMutability": "nonpayable",
      "type": "function"
    },
    {
      "inputs": [
        {
          "internalType": "address",
          "name": "newOwner",
          "type": "address"
        }
      ],
      "name": "transferOwnership",
      "outputs": [],
      "stateMutability": "nonpayable",
      "type": "function"
    },
    {
      "inputs": [],
      "name": "unpause",
      "outputs": [],
      "stateMutability": "nonpayable",
      "type": "function"
    }
  ],
  "bytecode": "0x60806040523480156200001157600080fd5b50620000226200002860201b60201c565b620001d2565b600060019054906101000a900460ff16156200007b576040517f08c379a0000000000000000000000000000000000000000000000000000000008152600401620000729062000175565b60405180910390fd5b60ff801660008054906101000a900460ff1660ff1614620000ec5760ff6000806101000a81548160ff021916908360ff1602179055507f7f26b83ff96e1f2b6a682f133852f6798a09c465da95921460cefb384740249860ff604051620000e39190620001b5565b60405180910390a15b565b600082825260208201905092915050565b7f496e697469616c697a61626c653a20636f6e747261637420697320696e69746960008201527f616c697a696e6700000000000000000000000000000000000000000000000000602082015250565b60006200015d602783620000ee565b91506200016a82620000ff565b604082019050919050565b6000602082019050818103600083015262000190816200014e565b9050919050565b600060ff82169050919050565b620001af8162000197565b82525050565b6000602082019050620001cc6000830184620001a4565b92915050565b6143c180620001e26000396000f3fe608060405234801561001057600080fd5b50600436106101c45760003560e01c80637180c8ca116100f9578063aa271e1a11610097578063cf456ae711610071578063cf456ae7146104cb578063d3fc9864146104e7578063e985e9c514610503578063f2fde38b14610533576101c4565b8063aa271e1a1461044f578063b88d4fde1461047f578063c87b56dd1461049b576101c4565b80638ca3e20a116100d35780638ca3e20a146103c75780638da5cb5b146103f757806395d89b4114610415578063a22cb46514610433576101c4565b80637180c8ca146103975780638129fc1c146103b35780638456cb59146103bd576101c4565b806342842e0e116101665780635c975abb116101405780635c975abb1461030f5780636352211e1461032d57806370a082311461035d578063715018a61461038d576101c4565b806342842e0e146102a757806342966c68146102c357806346fbf68e146102df576101c4565b8063095ea7b3116101a2578063095ea7b31461024757806318160ddd1461026357806323b872dd146102815780633f4ba83a1461029d576101c4565b806301ffc9a7146101c957806306fdde03146101f9578063081812fc14610217575b600080fd5b6101e360048036038101906101de9190612ac3565b61054f565b6040516101f09190612b0b565b60405180910390f35b610201610561565b60405161020e9190612bb6565b60405180910390f35b610231600480360381019061022c9190612c0e565b6105f3565b60405161023e9190612c7c565b60405180910390f35b610261600480360381019061025c9190612cc3565b610639565b005b61026b610750565b6040516102789190612d12565b60405180910390f35b61029b60048036038101906102969190612d2d565b610762565b005b6102a56107c2565b005b6102c160048036038101906102bc9190612d2d565b610860565b005b6102dd60048036038101906102d89190612c0e565b610880565b005b6102f960048036038101906102f49190612d80565b6108dc565b6040516103069190612b0b565b60405180910390f35b6103176108fd565b6040516103249190612b0b565b60405180910390f35b61034760048036038101906103429190612c0e565b610914565b6040516103549190612c7c565b60405180910390f35b61037760048036038101906103729190612d80565b61099a565b6040516103849190612d12565b60405180910390f35b610395610a51565b005b6103b160048036038101906103ac9190612dd9565b610a65565b005b6103bb610ac9565b005b6103c5610c93565b005b6103e160048036038101906103dc91906131ba565b610d31565b6040516103ee9190612d12565b60405180910390f35b6103ff610e4b565b60405161040c9190612c7c565b60405180910390f35b61041d610e75565b60405161042a9190612bb6565b60405180910390f35b61044d60048036038101906104489190612dd9565b610f07565b005b61046960048036038101906104649190612d80565b610f1d565b6040516104769190612b0b565b60405180910390f35b61049960048036038101906104949190613302565b610f3e565b005b6104b560048036038101906104b09190612c0e565b610fa0565b6040516104c29190612bb6565b60405180910390f35b6104e560048036038101906104e09190612dd9565b610fb2565b005b61050160048036038101906104fc9190613385565b611016565b005b61051d600480360381019061051891906133f4565b6110ce565b60405161052a9190612b0b565b60405180910390f35b61054d60048036038101906105489190612d80565b611162565b005b600061055a826111e5565b9050919050565b60606065805461057090613463565b80601f016020809104026020016040519081016040528092919081815260200182805461059c90613463565b80156105e95780601f106105be576101008083540402835291602001916105e9565b820191906000526020600020905b8154815290600101906020018083116105cc57829003601f168201915b5050505050905090565b60006105fe82611246565b6069600083815260200190815260200160002060009054906101000a900473ffffffffffffffffffffffffffffffffffffffff169050919050565b600061064482610914565b90508073ffffffffffffffffffffffffffffffffffffffff168373ffffffffffffffffffffffffffffffffffffffff16036106b4576040517f08c379a00000000000000000000000000000000000000000000000000000000081526004016106ab90613506565b60405180910390fd5b8073ffffffffffffffffffffffffffffffffffffffff166106d3611291565b73ffffffffffffffffffffffffffffffffffffffff1614806107025750610701816106fc611291565b6110ce565b5b610741576040517f08c379a000000000000000000000000000000000000000000000000000000000815260040161073890613598565b60405180910390fd5b61074b8383611299565b505050565b600061075d61015f611352565b905090565b61077361076d611291565b82611360565b6107b2576040517f08c379a00000000000000000000000000000000000000000000000000000000081526004016107a99061362a565b60405180910390fd5b6107bd8383836113f5565b505050565b61016160006107cf611291565b73ffffffffffffffffffffffffffffffffffffffff1673ffffffffffffffffffffffffffffffffffffffff16815260200190815260200160002060009054906101000a900460ff16610856576040517f08c379a000000000000000000000000000000000000000000000000000000000815260040161084d90613696565b60405180910390fd5b61085e6116ee565b565b61087b83838360405180602001604052806000815250610f3e565b505050565b61089161088b611291565b82611360565b6108d0576040517f08c379a00000000000000000000000000000000000000000000000000000000081526004016108c79061362a565b60405180910390fd5b6108d981611751565b50565b6101616020528060005260406000206000915054906101000a900460ff1681565b600060fb60009054906101000a900460ff16905090565b6000806109208361175d565b9050600073ffffffffffffffffffffffffffffffffffffffff168173ffffffffffffffffffffffffffffffffffffffff1603610991576040517f08c379a000000000000000000000000000000000000000000000000000000000815260040161098890613702565b60405180910390fd5b80915050919050565b60008073ffffffffffffffffffffffffffffffffffffffff168273ffffffffffffffffffffffffffffffffffffffff1603610a0a576040517f08c379a0000000000000000000000000000000000000000000000000000000008152600401610a0190613794565b60405180910390fd5b606860008373ffffffffffffffffffffffffffffffffffffffff1673ffffffffffffffffffffffffffffffffffffffff168152602001908152602001600020549050919050565b610a5961179a565b610a636000611818565b565b610a6d61179a565b8061016160008473ffffffffffffffffffffffffffffffffffffffff1673ffffffffffffffffffffffffffffffffffffffff16815260200190815260200160002060006101000a81548160ff0219169083151502179055505050565b60008060019054906101000a900460ff16159050808015610afa5750600160008054906101000a900460ff1660ff16105b80610b275750610b09306118de565b158015610b265750600160008054906101000a900460ff1660ff16145b5b610b66576040517f08c379a0000000000000000000000000000000000000000000000000000000008152600401610b5d90613826565b60405180910390fd5b60016000806101000a81548160ff021916908360ff1602179055508015610ba3576001600060016101000a81548160ff0219169083151502179055505b610c176040518060400160405280600881526020017f566964656f4e46540000000000000000000000000000000000000000000000008152506040518060400160405280600481526020017f564e465400000000000000000000000000000000000000000000000000000000815250611901565b610c1f61195e565b610c276119af565b610c2f611a08565b610c37611a59565b8015610c905760008060016101000a81548160ff0219169083151502179055507f7f26b83ff96e1f2b6a682f133852f6798a09c465da95921460cefb38474024986001604051610c879190613898565b60405180910390a15b50565b6101616000610ca0611291565b73ffffffffffffffffffffffffffffffffffffffff1673ffffffffffffffffffffffffffffffffffffffff16815260200190815260200160002060009054906101000a900460ff16610d27576040517f08c379a0000000000000000000000000000000000000000000000000000000008152600401610d1e90613696565b60405180910390fd5b610d2f611ab2565b565b60006101606000610d40611291565b73ffffffffffffffffffffffffffffffffffffffff1673ffffffffffffffffffffffffffffffffffffffff16815260200190815260200160002060009054906101000a900460ff16610dc7576040517f08c379a0000000000000000000000000000000000000000000000000000000008152600401610dbe906138ff565b60405180910390fd5b60005b8451811015610e4057610e2c858281518110610de957610de861391f565b5b6020026020010151858381518110610e0457610e0361391f565b5b6020026020010151858481518110610e1f57610e1e61391f565b5b6020026020010151611016565b600181610e39919061397d565b9050610dca565b809150509392505050565b600060c960009054906101000a900473ffffffffffffffffffffffffffffffffffffffff16905090565b606060668054610e8490613463565b80601f0160208091040260200160405190810160405280929190818152602001828054610eb090613463565b8015610efd5780601f10610ed257610100808354040283529160200191610efd565b820191906000526020600020905b815481529060010190602001808311610ee057829003601f168201915b5050505050905090565b610f19610f12611291565b8383611b15565b5050565b6101606020528060005260406000206000915054906101000a900460ff1681565b610f4f610f49611291565b83611360565b610f8e576040517f08c379a0000000000000000000000000000000000000000000000000000000008152600401610f859061362a565b60405180910390fd5b610f9a84848484611c81565b50505050565b6060610fab82611cdd565b9050919050565b610fba61179a565b8061016060008473ffffffffffffffffffffffffffffffffffffffff1673ffffffffffffffffffffffffffffffffffffffff16815260200190815260200160002060006101000a81548160ff0219169083151502179055505050565b6101606000611023611291565b73ffffffffffffffffffffffffffffffffffffffff1673ffffffffffffffffffffffffffffffffffffffff16815260200190815260200160002060009054906101000a900460ff166110aa576040517f08c379a00000000000000000000000000000000000000000000000000000000081526004016110a1906138ff565b60405180910390fd5b6110b48383611def565b6110be828261200c565b6110c961015f6120b0565b505050565b6000606a60008473ffffffffffffffffffffffffffffffffffffffff1673ffffffffffffffffffffffffffffffffffffffff16815260200190815260200160002060008373ffffffffffffffffffffffffffffffffffffffff1673ffffffffffffffffffffffffffffffffffffffff16815260200190815260200160002060009054906101000a900460ff16905092915050565b61116a61179a565b600073ffffffffffffffffffffffffffffffffffffffff168173ffffffffffffffffffffffffffffffffffffffff16036111d9576040517f08c379a00000000000000000000000000000000000000000000000000000000081526004016111d090613a23565b60405180910390fd5b6111e281611818565b50565b6000634906490660e01b7bffffffffffffffffffffffffffffffffffffffffffffffffffffffff1916827bffffffffffffffffffffffffffffffffffffffffffffffffffffffff1916148061123f575061123e826120c6565b5b9050919050565b61124f816121a8565b61128e576040517f08c379a000000000000000000000000000000000000000000000000000000000815260040161128590613702565b60405180910390fd5b50565b600033905090565b816069600083815260200190815260200160002060006101000a81548173ffffffffffffffffffffffffffffffffffffffff021916908373ffffffffffffffffffffffffffffffffffffffff160217905550808273ffffffffffffffffffffffffffffffffffffffff1661130c83610914565b73ffffffffffffffffffffffffffffffffffffffff167f8c5be1e5ebec7d5bd14f71427d1e84f3dd0314c0f7b2291e5b200ac8c7c3b92560405160405180910390a45050565b600081600001549050919050565b60008061136c83610914565b90508073ffffffffffffffffffffffffffffffffffffffff168473ffffffffffffffffffffffffffffffffffffffff1614806113ae57506113ad81856110ce565b5b806113ec57508373ffffffffffffffffffffffffffffffffffffffff166113d4846105f3565b73ffffffffffffffffffffffffffffffffffffffff16145b91505092915050565b8273ffffffffffffffffffffffffffffffffffffffff1661141582610914565b73ffffffffffffffffffffffffffffffffffffffff161461146b576040517f08c379a000000000000000000000000000000000000000000000000000000000815260040161146290613ab5565b60405180910390fd5b600073ffffffffffffffffffffffffffffffffffffffff168273ffffffffffffffffffffffffffffffffffffffff16036114da576040517f08c379a00000000000000000000000000000000000000000000000000000000081526004016114d190613b47565b60405180910390fd5b6114e783838360016121e9565b8273ffffffffffffffffffffffffffffffffffffffff1661150782610914565b73ffffffffffffffffffffffffffffffffffffffff161461155d576040517f08c379a000000000000000000000000000000000000000000000000000000000815260040161155490613ab5565b60405180910390fd5b6069600082815260200190815260200160002060006101000a81549073ffffffffffffffffffffffffffffffffffffffff02191690556001606860008573ffffffffffffffffffffffffffffffffffffffff1673ffffffffffffffffffffffffffffffffffffffff168152602001908152602001600020600082825403925050819055506001606860008473ffffffffffffffffffffffffffffffffffffffff1673ffffffffffffffffffffffffffffffffffffffff16815260200190815260200160002060008282540192505081905550816067600083815260200190815260200160002060006101000a81548173ffffffffffffffffffffffffffffffffffffffff021916908373ffffffffffffffffffffffffffffffffffffffff160217905550808273ffffffffffffffffffffffffffffffffffffffff168473ffffffffffffffffffffffffffffffffffffffff167fddf252ad1be2c89b69c2b068fc378daa952ba7f163c4a11628f55a4df523b3ef60405160405180910390a46116e983838360016121ef565b505050565b6116f66121f5565b600060fb60006101000a81548160ff0219169083151502179055507f5db9ee0a495bf2e6ff9c91a7834c1ba4fdd244a5e8aa4e537bd38aeae4b073aa61173a611291565b6040516117479190612c7c565b60405180910390a1565b61175a8161223e565b50565b60006067600083815260200190815260200160002060009054906101000a900473ffffffffffffffffffffffffffffffffffffffff169050919050565b6117a2611291565b73ffffffffffffffffffffffffffffffffffffffff166117c0610e4b565b73ffffffffffffffffffffffffffffffffffffffff1614611816576040517f08c379a000000000000000000000000000000000000000000000000000000000815260040161180d90613bb3565b60405180910390fd5b565b600060c960009054906101000a900473ffffffffffffffffffffffffffffffffffffffff1690508160c960006101000a81548173ffffffffffffffffffffffffffffffffffffffff021916908373ffffffffffffffffffffffffffffffffffffffff1602179055508173ffffffffffffffffffffffffffffffffffffffff168173ffffffffffffffffffffffffffffffffffffffff167f8be0079c531659141344cd1fd0a4f28419497f9722a3daafe3b4186f6b6457e060405160405180910390a35050565b6000808273ffffffffffffffffffffffffffffffffffffffff163b119050919050565b600060019054906101000a900460ff16611950576040517f08c379a000000000000000000000000000000000000000000000000000000000815260040161194790613c45565b60405180910390fd5b61195a8282612291565b5050565b600060019054906101000a900460ff166119ad576040517f08c379a00000000000000000000000000000000000000000000000000000000081526004016119a490613c45565b60405180910390fd5b565b600060019054906101000a900460ff166119fe576040517f08c379a00000000000000000000000000000000000000000000000000000000081526004016119f590613c45565b60405180910390fd5b611a06612304565b565b600060019054906101000a900460ff16611a57576040517f08c379a0000000000000000000000000000000000000000000000000000000008152600401611a4e90613c45565b60405180910390fd5b565b600060019054906101000a900460ff16611aa8576040517f08c379a0000000000000000000000000000000000000000000000000000000008152600401611a9f90613c45565b60405180910390fd5b611ab0612370565b565b611aba6123d1565b600160fb60006101000a81548160ff0219169083151502179055507f62e78cea01bee320cd4e420270b5ea74000d11b0c9f74754ebdbfc544b05a258611afe611291565b604051611b0b9190612c7c565b60405180910390a1565b8173ffffffffffffffffffffffffffffffffffffffff168373ffffffffffffffffffffffffffffffffffffffff1603611b83576040517f08c379a0000000000000000000000000000000000000000000000000000000008152600401611b7a90613cb1565b60405180910390fd5b80606a60008573ffffffffffffffffffffffffffffffffffffffff1673ffffffffffffffffffffffffffffffffffffffff16815260200190815260200160002060008473ffffffffffffffffffffffffffffffffffffffff1673ffffffffffffffffffffffffffffffffffffffff16815260200190815260200160002060006101000a81548160ff0219169083151502179055508173ffffffffffffffffffffffffffffffffffffffff168373ffffffffffffffffffffffffffffffffffffffff167f17307eab39ab6107e8899845ad3d59bd9653f200f220920489ca2b5937696c3183604051611c749190612b0b565b60405180910390a3505050565b611c8c8484846113f5565b611c988484848461241b565b611cd7576040517f08c379a0000000000000000000000000000000000000000000000000000000008152600401611cce90613d43565b60405180910390fd5b50505050565b6060611ce882611246565b6000609760008481526020019081526020016000208054611d0890613463565b80601f0160208091040260200160405190810160405280929190818152602001828054611d3490613463565b8015611d815780601f10611d5657610100808354040283529160200191611d81565b820191906000526020600020905b815481529060010190602001808311611d6457829003601f168201915b505050505090506000611d926125a2565b90506000815103611da7578192505050611dea565b600082511115611ddc578082604051602001611dc4929190613d9f565b60405160208183030381529060405292505050611dea565b611de5846125b9565b925050505b919050565b600073ffffffffffffffffffffffffffffffffffffffff168273ffffffffffffffffffffffffffffffffffffffff1603611e5e576040517f08c379a0000000000000000000000000000000000000000000000000000000008152600401611e5590613e0f565b60405180910390fd5b611e67816121a8565b15611ea7576040517f08c379a0000000000000000000000000000000000000000000000000000000008152600401611e9e90613e7b565b60405180910390fd5b611eb56000838360016121e9565b611ebe816121a8565b15611efe576040517f08c379a0000000000000000000000000000000000000000000000000000000008152600401611ef590613e7b565b60405180910390fd5b6001606860008473ffffffffffffffffffffffffffffffffffffffff1673ffffffffffffffffffffffffffffffffffffffff16815260200190815260200160002060008282540192505081905550816067600083815260200190815260200160002060006101000a81548173ffffffffffffffffffffffffffffffffffffffff021916908373ffffffffffffffffffffffffffffffffffffffff160217905550808273ffffffffffffffffffffffffffffffffffffffff16600073ffffffffffffffffffffffffffffffffffffffff167fddf252ad1be2c89b69c2b068fc378daa952ba7f163c4a11628f55a4df523b3ef60405160405180910390a46120086000838360016121ef565b5050565b612015826121a8565b612054576040517f08c379a000000000000000000000000000000000000000000000000000000000815260040161204b90613f0d565b60405180910390fd5b8060976000848152602001908152602001600020908161207491906140cf565b507ff8e1a15aba9398e019f0b49df1a4fde98ee17ae345cb5f6b5e2c27f5033e8ce7826040516120a49190612d12565b60405180910390a15050565b6001816000016000828254019250508190555050565b60007f80ac58cd000000000000000000000000000000000000000000000000000000007bffffffffffffffffffffffffffffffffffffffffffffffffffffffff1916827bffffffffffffffffffffffffffffffffffffffffffffffffffffffff1916148061219157507f5b5e139f000000000000000000000000000000000000000000000000000000007bffffffffffffffffffffffffffffffffffffffffffffffffffffffff1916827bffffffffffffffffffffffffffffffffffffffffffffffffffffffff1916145b806121a157506121a082612621565b5b9050919050565b60008073ffffffffffffffffffffffffffffffffffffffff166121ca8361175d565b73ffffffffffffffffffffffffffffffffffffffff1614159050919050565b50505050565b50505050565b6121fd6108fd565b61223c576040517f08c379a0000000000000000000000000000000000000000000000000000000008152600401612233906141ed565b60405180910390fd5b565b6122478161268b565b600060976000838152602001908152602001600020805461226790613463565b90501461228e5760976000828152602001908152602001600020600061228d91906129fa565b5b50565b600060019054906101000a900460ff166122e0576040517f08c379a00000000000000000000000000000000000000000000000000000000081526004016122d790613c45565b60405180910390fd5b81606590816122ef91906140cf565b5080606690816122ff91906140cf565b505050565b600060019054906101000a900460ff16612353576040517f08c379a000000000000000000000000000000000000000000000000000000000815260040161234a90613c45565b60405180910390fd5b600060fb60006101000a81548160ff021916908315150217905550565b600060019054906101000a900460ff166123bf576040517f08c379a00000000000000000000000000000000000000000000000000000000081526004016123b690613c45565b60405180910390fd5b6123cf6123ca611291565b611818565b565b6123d96108fd565b15612419576040517f08c379a000000000000000000000000000000000000000000000000000000000815260040161241090614259565b60405180910390fd5b565b600061243c8473ffffffffffffffffffffffffffffffffffffffff166118de565b15612595578373ffffffffffffffffffffffffffffffffffffffff1663150b7a02612465611291565b8786866040518563ffffffff1660e01b815260040161248794939291906142ce565b6020604051808303816000875af19250505080156124c357506040513d601f19601f820116820180604052508101906124c0919061432f565b60015b612545573d80600081146124f3576040519150601f19603f3d011682016040523d82523d6000602084013e6124f8565b606091505b50600081510361253d576040517f08c379a000000000000000000000000000000000000000000000000000000000815260040161253490613d43565b60405180910390fd5b805181602001fd5b63150b7a0260e01b7bffffffffffffffffffffffffffffffffffffffffffffffffffffffff1916817bffffffffffffffffffffffffffffffffffffffffffffffffffffffff19161491505061259a565b600190505b949350505050565b606060405180602001604052806000815250905090565b60606125c482611246565b60006125ce6125a2565b905060008151116125ee5760405180602001604052806000815250612619565b806125f8846127d9565b604051602001612609929190613d9f565b6040516020818303038152906040525b915050919050565b60007f01ffc9a7000000000000000000000000000000000000000000000000000000007bffffffffffffffffffffffffffffffffffffffffffffffffffffffff1916827bffffffffffffffffffffffffffffffffffffffffffffffffffffffff1916149050919050565b600061269682610914565b90506126a68160008460016121e9565b6126af82610914565b90506069600083815260200190815260200160002060006101000a81549073ffffffffffffffffffffffffffffffffffffffff02191690556001606860008373ffffffffffffffffffffffffffffffffffffffff1673ffffffffffffffffffffffffffffffffffffffff168152602001908152602001600020600082825403925050819055506067600083815260200190815260200160002060006101000a81549073ffffffffffffffffffffffffffffffffffffffff021916905581600073ffffffffffffffffffffffffffffffffffffffff168273ffffffffffffffffffffffffffffffffffffffff167fddf252ad1be2c89b69c2b068fc378daa952ba7f163c4a11628f55a4df523b3ef60405160405180910390a46127d58160008460016121ef565b5050565b6060600060016127e8846128a7565b01905060008167ffffffffffffffff81111561280757612806612e1e565b5b6040519080825280601f01601f1916602001820160405280156128395781602001600182028036833780820191505090505b509050600082602001820190505b60011561289c578080600190039150507f3031323334353637383961626364656600000000000000000000000000000000600a86061a8153600a85816128905761288f61435c565b5b04945060008503612847575b819350505050919050565b600080600090507a184f03e93ff9f4daa797ed6e38ed64bf6a1f0100000000000000008310612905577a184f03e93ff9f4daa797ed6e38ed64bf6a1f01000000000000000083816128fb576128fa61435c565b5b0492506040810190505b6d04ee2d6d415b85acef81000000008310612942576d04ee2d6d415b85acef810000000083816129385761293761435c565b5b0492506020810190505b662386f26fc10000831061297157662386f26fc1000083816129675761296661435c565b5b0492506010810190505b6305f5e100831061299a576305f5e10083816129905761298f61435c565b5b0492506008810190505b61271083106129bf5761271083816129b5576129b461435c565b5b0492506004810190505b606483106129e257606483816129d8576129d761435c565b5b0492506002810190505b600a83106129f1576001810190505b80915050919050565b508054612a0690613463565b6000825580601f10612a185750612a37565b601f016020900490600052602060002090810190612a369190612a3a565b5b50565b5b80821115612a53576000816000905550600101612a3b565b5090565b6000604051905090565b600080fd5b600080fd5b60007fffffffff0000000000000000000000000000000000000000000000000000000082169050919050565b612aa081612a6b565b8114612aab57600080fd5b50565b600081359050612abd81612a97565b92915050565b600060208284031215612ad957612ad8612a61565b5b6000612ae784828501612aae565b91505092915050565b60008115159050919050565b612b0581612af0565b82525050565b6000602082019050612b206000830184612afc565b92915050565b600081519050919050565b600082825260208201905092915050565b60005b83811015612b60578082015181840152602081019050612b45565b60008484015250505050565b6000601f19601f8301169050919050565b6000612b8882612b26565b612b928185612b31565b9350612ba2818560208601612b42565b612bab81612b6c565b840191505092915050565b60006020820190508181036000830152612bd08184612b7d565b905092915050565b6000819050919050565b612beb81612bd8565b8114612bf657600080fd5b50565b600081359050612c0881612be2565b92915050565b600060208284031215612c2457612c23612a61565b5b6000612c3284828501612bf9565b91505092915050565b600073ffffffffffffffffffffffffffffffffffffffff82169050919050565b6000612c6682612c3b565b9050919050565b612c7681612c5b565b82525050565b6000602082019050612c916000830184612c6d565b92915050565b612ca081612c5b565b8114612cab57600080fd5b50565b600081359050612cbd81612c97565b92915050565b60008060408385031215612cda57612cd9612a61565b5b6000612ce885828601612cae565b9250506020612cf985828601612bf9565b9150509250929050565b612d0c81612bd8565b82525050565b6000602082019050612d276000830184612d03565b92915050565b600080600060608486031215612d4657612d45612a61565b5b6000612d5486828701612cae565b9350506020612d6586828701612cae565b9250506040612d7686828701612bf9565b9150509250925092565b600060208284031215612d9657612d95612a61565b5b6000612da484828501612cae565b91505092915050565b612db681612af0565b8114612dc157600080fd5b50565b600081359050612dd381612dad565b92915050565b60008060408385031215612df057612def612a61565b5b6000612dfe85828601612cae565b9250506020612e0f85828601612dc4565b9150509250929050565b600080fd5b7f4e487b7100000000000000000000000000000000000000000000000000000000600052604160045260246000fd5b612e5682612b6c565b810181811067ffffffffffffffff82111715612e7557612e74612e1e565b5b80604052505050565b6000612e88612a57565b9050612e948282612e4d565b919050565b600067ffffffffffffffff821115612eb457612eb3612e1e565b5b602082029050602081019050919050565b600080fd5b6000612edd612ed884612e99565b612e7e565b90508083825260208201905060208402830185811115612f0057612eff612ec5565b5b835b81811015612f295780612f158882612cae565b845260208401935050602081019050612f02565b5050509392505050565b600082601f830112612f4857612f47612e19565b5b8135612f58848260208601612eca565b91505092915050565b600067ffffffffffffffff821115612f7c57612f7b612e1e565b5b602082029050602081019050919050565b6000612fa0612f9b84612f61565b612e7e565b90508083825260208201905060208402830185811115612fc357612fc2612ec5565b5b835b81811015612fec5780612fd88882612bf9565b845260208401935050602081019050612fc5565b5050509392505050565b600082601f83011261300b5761300a612e19565b5b813561301b848260208601612f8d565b91505092915050565b600067ffffffffffffffff82111561303f5761303e612e1e565b5b602082029050602081019050919050565b600080fd5b600067ffffffffffffffff8211156130705761306f612e1e565b5b61307982612b6c565b9050602081019050919050565b82818337600083830152505050565b60006130a86130a384613055565b612e7e565b9050828152602081018484840111156130c4576130c3613050565b5b6130cf848285613086565b509392505050565b600082601f8301126130ec576130eb612e19565b5b81356130fc848260208601613095565b91505092915050565b600061311861311384613024565b612e7e565b9050808382526020820190506020840283018581111561313b5761313a612ec5565b5b835b8181101561318257803567ffffffffffffffff8111156131605761315f612e19565b5b80860161316d89826130d7565b8552602085019450505060208101905061313d565b5050509392505050565b600082601f8301126131a1576131a0612e19565b5b81356131b1848260208601613105565b91505092915050565b6000806000606084860312156131d3576131d2612a61565b5b600084013567ffffffffffffffff8111156131f1576131f0612a66565b5b6131fd86828701612f33565b935050602084013567ffffffffffffffff81111561321e5761321d612a66565b5b61322a86828701612ff6565b925050604084013567ffffffffffffffff81111561324b5761324a612a66565b5b6132578682870161318c565b9150509250925092565b600067ffffffffffffffff82111561327c5761327b612e1e565b5b61328582612b6c565b9050602081019050919050565b60006132a56132a084613261565b612e7e565b9050828152602081018484840111156132c1576132c0613050565b5b6132cc848285613086565b509392505050565b600082601f8301126132e9576132e8612e19565b5b81356132f9848260208601613292565b91505092915050565b6000806000806080858703121561331c5761331b612a61565b5b600061332a87828801612cae565b945050602061333b87828801612cae565b935050604061334c87828801612bf9565b925050606085013567ffffffffffffffff81111561336d5761336c612a66565b5b613379878288016132d4565b91505092959194509250565b60008060006060848603121561339e5761339d612a61565b5b60006133ac86828701612cae565b93505060206133bd86828701612bf9565b925050604084013567ffffffffffffffff8111156133de576133dd612a66565b5b6133ea868287016130d7565b9150509250925092565b6000806040838503121561340b5761340a612a61565b5b600061341985828601612cae565b925050602061342a85828601612cae565b9150509250929050565b7f4e487b7100000000000000000000000000000000000000000000000000000000600052602260045260246000fd5b6000600282049050600182168061347b57607f821691505b60208210810361348e5761348d613434565b5b50919050565b7f4552433732313a20617070726f76616c20746f2063757272656e74206f776e6560008201527f7200000000000000000000000000000000000000000000000000000000000000602082015250565b60006134f0602183612b31565b91506134fb82613494565b604082019050919050565b6000602082019050818103600083015261351f816134e3565b9050919050565b7f4552433732313a20617070726f76652063616c6c6572206973206e6f7420746f60008201527f6b656e206f776e6572206f7220617070726f76656420666f7220616c6c000000602082015250565b6000613582603d83612b31565b915061358d82613526565b604082019050919050565b600060208201905081810360008301526135b181613575565b9050919050565b7f4552433732313a2063616c6c6572206973206e6f7420746f6b656e206f776e6560008201527f72206f7220617070726f76656400000000000000000000000000000000000000602082015250565b6000613614602d83612b31565b915061361f826135b8565b604082019050919050565b6000602082019050818103600083015261364381613607565b9050919050565b7f2150617573657200000000000000000000000000000000000000000000000000600082015250565b6000613680600783612b31565b915061368b8261364a565b602082019050919050565b600060208201905081810360008301526136af81613673565b9050919050565b7f4552433732313a20696e76616c696420746f6b656e2049440000000000000000600082015250565b60006136ec601883612b31565b91506136f7826136b6565b602082019050919050565b6000602082019050818103600083015261371b816136df565b9050919050565b7f4552433732313a2061646472657373207a65726f206973206e6f74206120766160008201527f6c6964206f776e65720000000000000000000000000000000000000000000000602082015250565b600061377e602983612b31565b915061378982613722565b604082019050919050565b600060208201905081810360008301526137ad81613771565b9050919050565b7f496e697469616c697a61626c653a20636f6e747261637420697320616c72656160008201527f647920696e697469616c697a6564000000000000000000000000000000000000602082015250565b6000613810602e83612b31565b915061381b826137b4565b604082019050919050565b6000602082019050818103600083015261383f81613803565b9050919050565b6000819050919050565b600060ff82169050919050565b6000819050919050565b600061388261387d61387884613846565b61385d565b613850565b9050919050565b61389281613867565b82525050565b60006020820190506138ad6000830184613889565b92915050565b7f214d696e74657200000000000000000000000000000000000000000000000000600082015250565b60006138e9600783612b31565b91506138f4826138b3565b602082019050919050565b60006020820190508181036000830152613918816138dc565b9050919050565b7f4e487b7100000000000000000000000000000000000000000000000000000000600052603260045260246000fd5b7f4e487b7100000000000000000000000000000000000000000000000000000000600052601160045260246000fd5b600061398882612bd8565b915061399383612bd8565b92508282019050808211156139ab576139aa61394e565b5b92915050565b7f4f776e61626c653a206e6577206f776e657220697320746865207a65726f206160008201527f6464726573730000000000000000000000000000000000000000000000000000602082015250565b6000613a0d602683612b31565b9150613a18826139b1565b604082019050919050565b60006020820190508181036000830152613a3c81613a00565b9050919050565b7f4552433732313a207472616e736665722066726f6d20696e636f72726563742060008201527f6f776e6572000000000000000000000000000000000000000000000000000000602082015250565b6000613a9f602583612b31565b9150613aaa82613a43565b604082019050919050565b60006020820190508181036000830152613ace81613a92565b9050919050565b7f4552433732313a207472616e7366657220746f20746865207a65726f2061646460008201527f7265737300000000000000000000000000000000000000000000000000000000602082015250565b6000613b31602483612b31565b9150613b3c82613ad5565b604082019050919050565b60006020820190508181036000830152613b6081613b24565b9050919050565b7f4f776e61626c653a2063616c6c6572206973206e6f7420746865206f776e6572600082015250565b6000613b9d602083612b31565b9150613ba882613b67565b602082019050919050565b60006020820190508181036000830152613bcc81613b90565b9050919050565b7f496e697469616c697a61626c653a20636f6e7472616374206973206e6f74206960008201527f6e697469616c697a696e67000000000000000000000000000000000000000000602082015250565b6000613c2f602b83612b31565b9150613c3a82613bd3565b604082019050919050565b60006020820190508181036000830152613c5e81613c22565b9050919050565b7f4552433732313a20617070726f766520746f2063616c6c657200000000000000600082015250565b6000613c9b601983612b31565b9150613ca682613c65565b602082019050919050565b60006020820190508181036000830152613cca81613c8e565b9050919050565b7f4552433732313a207472616e7366657220746f206e6f6e20455243373231526560008201527f63656976657220696d706c656d656e7465720000000000000000000000000000602082015250565b6000613d2d603283612b31565b9150613d3882613cd1565b604082019050919050565b60006020820190508181036000830152613d5c81613d20565b9050919050565b600081905092915050565b6000613d7982612b26565b613d838185613d63565b9350613d93818560208601612b42565b80840191505092915050565b6000613dab8285613d6e565b9150613db78284613d6e565b91508190509392505050565b7f4552433732313a206d696e7420746f20746865207a65726f2061646472657373600082015250565b6000613df9602083612b31565b9150613e0482613dc3565b602082019050919050565b60006020820190508181036000830152613e2881613dec565b9050919050565b7f4552433732313a20746f6b656e20616c7265616479206d696e74656400000000600082015250565b6000613e65601c83612b31565b9150613e7082613e2f565b602082019050919050565b60006020820190508181036000830152613e9481613e58565b9050919050565b7f45524337323155524953746f726167653a2055524920736574206f66206e6f6e60008201527f6578697374656e7420746f6b656e000000000000000000000000000000000000602082015250565b6000613ef7602e83612b31565b9150613f0282613e9b565b604082019050919050565b60006020820190508181036000830152613f2681613eea565b9050919050565b60008190508160005260206000209050919050565b60006020601f8301049050919050565b600082821b905092915050565b600060088302613f8f7fffffffffffffffffffffffffffffffffffffffffffffffffffffffffffffffff82613f52565b613f998683613f52565b95508019841693508086168417925050509392505050565b6000613fcc613fc7613fc284612bd8565b61385d565b612bd8565b9050919050565b6000819050919050565b613fe683613fb1565b613ffa613ff282613fd3565b848454613f5f565b825550505050565b600090565b61400f614002565b61401a818484613fdd565b505050565b5b8181101561403e57614033600082614007565b600181019050614020565b5050565b601f8211156140835761405481613f2d565b61405d84613f42565b8101602085101561406c578190505b61408061407885613f42565b83018261401f565b50505b505050565b600082821c905092915050565b60006140a660001984600802614088565b1980831691505092915050565b60006140bf8383614095565b9150826002028217905092915050565b6140d882612b26565b67ffffffffffffffff8111156140f1576140f0612e1e565b5b6140fb8254613463565b614106828285614042565b600060209050601f8311600181146141395760008415614127578287015190505b61413185826140b3565b865550614199565b601f19841661414786613f2d565b60005b8281101561416f5784890151825560018201915060208501945060208101905061414a565b8683101561418c5784890151614188601f891682614095565b8355505b6001600288020188555050505b505050505050565b7f5061757361626c653a206e6f7420706175736564000000000000000000000000600082015250565b60006141d7601483612b31565b91506141e2826141a1565b602082019050919050565b60006020820190508181036000830152614206816141ca565b9050919050565b7f5061757361626c653a2070617573656400000000000000000000000000000000600082015250565b6000614243601083612b31565b915061424e8261420d565b602082019050919050565b6000602082019050818103600083015261427281614236565b9050919050565b600081519050919050565b600082825260208201905092915050565b60006142a082614279565b6142aa8185614284565b93506142ba818560208601612b42565b6142c381612b6c565b840191505092915050565b60006080820190506142e36000830187612c6d565b6142f06020830186612c6d565b6142fd6040830185612d03565b818103606083015261430f8184614295565b905095945050505050565b60008151905061432981612a97565b92915050565b60006020828403121561434557614344612a61565b5b60006143538482850161431a565b91505092915050565b7f4e487b7100000000000000000000000000000000000000000000000000000000600052601260045260246000fdfea2646970667358221220769a0c4c69d8457c5ea4e37d18c666ae0801010063ddea37f2558f1d59b6f8f564736f6c63430008120033",
  "linkReferences": {},
  "deployedLinkReferences": {}
}